:020000040800F2
:10000000FFFF02207D0E0008CD0E0008CD0E000877
:10001000CD0E0008CD0E0008CD0E00080000000037
:10002000000000000000000000000000CD0E0008ED
:10003000CD0E000800000000CD0E0008CD0E000817
:10004000CD0E0008CD0E0008CD0E0008CD0E000824
:10005000CD0E0008CD0E0008CD0E0008CD0E000814
:10006000CD0E0008CD0E0008CD0E0008CD0E000804
:10007000CD0E0008CD0E0008CD0E0008CD0E0008F4
:10008000CD0E0008CD0E0008CD0E0008CD0E0008E4
:10009000CD0E0008CD0E0008CD0E0008CD0E0008D4
:1000A000CD0E0008CD0E0008CD0E0008CD0E0008C4
:1000B000CD0E0008CD0E0008CD0E0008CD0E0008B4
:1000C000CD0E0008CD0E0008CD0E0008CD0E0008A4
:1000D000CD0E0008CD0E0008CD0E0008CD0E000894
:1000E000CD0E0008CD0E0008CD0E0008CD0E000884
:1000F000CD0E0008CD0E0008CD0E0008CD0E000874
:10010000CD0E0008CD0E0008CD0E0008CD0E000863
:10011000CD0E0008CD0E0008CD0E0008CD0E000853
:10012000CD0E0008CD0E0008CD0E0008CD0E000843
:10013000CD0E0008CD0E0008CD0E0008CD0E000833
:10014000CD0E0008CD0E0008CD0E0008CD0E000823
:10015000CD0E0008CD0E0008CD0E0008CD0E000813
:10016000CD0E0008CD0E0008CD0E0008CD0E000803
:10017000CD0E0008CD0E0008CD0E000800000000D6
:10018000CD0E0008CD0E0008CD0E0008CD0E0008E3
:10019000CD0E0008CD0E0008CD0E0008CD0E0008D3
:0C01A000CD0E0008CD0E0008CD0E0008AA
:1001AC0010B5054C237833B9044B13B10448AFF3A5
:1001BC0000800123237010BD4004002000000000CB
:1001CC00D00E0008084B10B51BB108480849AFF316
:1001DC0000800848036803B910BD074B002BFBD007
:1001EC00BDE81040184700BF00000000D00E00080A
:1001FC0044040020400400200000000090B58DB0A5
:10020C0000AF0023FB620023BB6200F095FA0346AB
:10021C007B6200F0BBF938621B4BFB610023BB61B6
:10022C00194B7B61194A3B46144620686168A268E9
:10023C0007C3A289A17B1A800A469A70144B3B61B2
:10024C0000F082F903200E21124A00F0DBFC03209F
:10025C000D21104A00F0D6FC0D200E4900F042FD95
:10026C000E200C4900F050FD0B4800F017F80D2043
:10027C00084900F049FD0E20064900F033FD064800
:10028C0000F00CF8E8E700BF00401008F40E00087E
:10029C00E80E00080018024040420F0080B483B002
:1002AC0000AF786002E07B68013B7B607B68002BD1
:1002BC00F9D10C37BD465DF8047B704780B500AFB3
:1002CC00154A154BD3F8883043F47003C2F88830C4
:1002DC00124A124B1B6843F0010313600F4B0022B0
:1002EC009A600E4A0D4B1B6823F0847323F4803301
:1002FC0013600A4B0A4A5A60084A084B1B6823F4DD
:10030C0080231360054B0022DA6000F087F8024B63
:10031C004FF000629A6080BD00ED00E000380240B2
:10032C001030002480B487B000AF00233B61002361
:10033C007B610223FB600023BB6002237B60324B9A
:10034C009B6803F00C033B613B69042B07D0082B23
:10035C0009D0002B3FD12D4B2D4A1A603FE02B4B7F
:10036C002C4A1A603BE0284B5B6803F480039B0D1E
:10037C00BB60254B5B6803F03F037B60BB68002BC5
:10038C000DD0244A7B68B2FBF3F21F4B596847F639
:10039C00C0730B409B0903FB02F37B610CE01C4A0E
:1003AC007B68B2FBF3F2184B596847F6C0730B40ED
:1003BC009B0903FB02F37B61134B5B6803F4403333
:1003CC001B0C01335B00FB607A69FB68B2FBF3F337
:1003DC000E4A136003E00D4B0D4A1A6000BF0A4B26
:1003EC009B6803F0F0031B090B4AD35CDBB23B6147
:1003FC00064B1A683B6922FA03F3044A13601C3754
:10040C00BD465DF8047B70470038024000000020B8
:10041C000024F40000127A000400002080B483B0A1
:10042C0000AF00237B6000233B60434A424B1B68B8
:10043C0043F480331360404B1B6803F400333B6080
:10044C007B6801337B603B68002B04D17B6841F2F5
:10045C0088329342EFD1384B1B6803F40033002BE6
:10046C0002D001233B6001E000233B603B68012B81
:10047C005CD1314A304B1B6C43F0805313642F4AD0
:10048C002E4B1B6843F4404313602B4A2A4B9B684A
:10049C009360294A284B9B6843F400439360264A97
:1004AC00254B9B6843F4A0539360234B244A5A601A
:1004BC00214A214B1B6843F08073136000BF1E4B15
:1004CC001B6803F00073002BF9D01C4A1B4B1B68F4
:1004DC0043F48033136000BF184B5B6803F4803324
:1004EC00002BF9D0154A154B1B6843F400331360ED
:1004FC0000BF124B5B6803F40033002BF9D0114B97
:10050C0040F205721A600C4A0B4B9B6823F00303F4
:10051C009360094A084B9B6843F00203936000BF49
:10052C00054B9B6803F00C03082BF9D10C37BD4627
:10053C005DF8047B704700BF00380240007000403B
:10054C00085A4007003C024080B483B000AF0E4A0A
:10055C000D4B1B6923F4800313610B4A0A4B1B6B75
:10056C0023F480031363084A074B1B6B43F480038B
:10057C001363054B1B6B7B60034B1B693B600C3798
:10058C00BD465DF8047B70470038024080B487B0EC
:10059C0000AF374B9B6803F48073FB60FB68002B48
:1005AC0002D101237B6109E0314B9B681B0903F0ED
:1005BC00070301331A46012393407B612C4B5B6884
:1005CC009B09C3F30803BB60294B5B6803F03F0333
:1005DC007B60274B5B681B0C03F0030301331A464B
:1005EC00012393403B60224B9B6803F00C039B0858
:1005FC00002B05D11F4A7B6992FBF3F33B6130E082
:10060C001B4B9B6803F00C039B08012B05D11A4A6A
:10061C007B6992FBF3F33B6123E0154B5B689B0D0D
:10062C0003F00103002B0ED1BB68124A02FB03F24C
:10063C007B68396801FB03F3796901FB03F392FBD7
:10064C00F3F33B610DE07B683A6802FB03F37A69D4
:10065C0002FB03F3084A92FBF3F3BA6802FB03F3C1
:10066C003B613B6918461C37BD465DF8047B7047FF
:10067C00003802400024F40000127A0080B400AF6D
:10068C00044BDB681B0C03F001031846BD465DF8F8
:10069C00047B7047003C024080B586B000AF00F090
:1006AC0037F81A4BDB68DB0903F001037B61174B4E
:1006BC00DB689B0903F001033B61144BDB685B09AE
:1006CC0003F00103FB60114BDB681B0903F0010312
:1006DC00BB600E4BDB685B0803F001037B607B693E
:1006EC00002B0BD13B69002B08D1FB68002B05D1EB
:1006FC00BB68002B02D17B68002B01D0012300E0EA
:10070C00002318461837BD4680BD00BF003C024090
:10071C0080B485B000AF074BDB68FB60054B1B69F1
:10072C00BB60044B5B697B601437BD465DF8047B92
:10073C00704700BF003C024080B400AF044B1B6804
:10074C0003F00F031846BD465DF8047B704700BFED
:10075C00003C024080B400AF044B054A5A60034B86
:10076C00044A5A60BD465DF8047B7047003C024069
:10077C0023016745AB89EFCD80B400AF044A044B2D
:10078C001B6943F000431361BD465DF8047B704761
:10079C00003C024080B582B000AF786000BFFFF72C
:1007AC006DFF0346002BFAD1FFF7B2FF1E4A1E4B1A
:1007BC001B6923F0020313611B4A1B4B1B6923F0BB
:1007CC00F8031361184A184B1B6923F48033136127
:1007DC00154A154B1B6943F0020313611249124B66
:1007EC001A697B68DB0013430B610F4A0E4B1B69C4
:1007FC0043F480331361FFF78BFF00BFFFF73EFF1D
:10080C000346002BFAD1084A074B1B6923F002035D
:10081C001361054A044B1B6923F0F8031361FFF7BE
:10082C0077FF0837BD4680BD003C024080B582B0E2
:10083C0000AF786000BFFFF721FF0346002BFAD111
:10084C00FFF766FF7B68012B0CD1204A1F4B1B69FD
:10085C0023F0040313611D4A1C4B1B6943F0040372
:10086C0013610BE0194A194B1B6923F40043136104
:10087C00164A164B1B6943F400431361FFF748FFFC
:10088C00124A124B1B6923F4803313610F4A0F4B2E
:10089C001B6943F480331361FFF73AFF00BFFFF786
:1008AC00EDFE0346002BFAD1084A084B1B6923F0D6
:1008BC0004031361054A054B1B6923F400431361C0
:1008CC00FFF726FF0837BD4680BD00BF003C024045
:1008DC0080B500AF00BFFFF7D1FE0346002BFAD165
:1008EC00FFF716FF1E4A1E4B1B6923F0040313610E
:1008FC001B4A1B4B1B6923F400431361184A184B0A
:10090C001B6943F004031361154A154B1B6943F42F
:10091C0000431361FFF7FCFE114A114B1B6923F4D2
:10092C00803313610E4A0E4B1B6943F48033136101
:10093C00FFF7EEFE00BFFFF7A1FE0346002BFAD136
:10094C00074A074B1B6923F004031361044A044B49
:10095C001B6923F400431361FFF7DAFE80BD00BF6F
:10096C00003C024080B500AF074A074B1B6923F0DF
:10097C0001031361044A044B1B6943F00103136127
:10098C00FFF7C6FE80BD00BF003C024080B582B0C0
:10099C0000AF78600B4A0B4B1B6923F0010313610A
:1009AC00084A084B1B6923F4407313610549054B36
:1009BC001B697A68120213430B61FFF7A9FE083713
:1009CC00BD4680BD003C024080B586B000AFF860EB
:1009DC00C7E9002300237B613B6A3B6100BFFFF743
:1009EC004DFE0346002BFAD1FFF792FEF868FFF795
:1009FC00CDFFFFF7B7FFFFF74FFE7861FFF788FEDB
:100A0C00FB68032B31D801A252F823F0290A000805
:100A1C00430A00085D0A0008770A0008D7E900239A
:100A2C004FF0FF004FF0000102EA000203EA01035D
:100A3C00C7E9002319E0D7E900234FF6FF704FF008
:100A4C00000102EA000203EA0103C7E900230CE0FB
:100A5C00D7E900234FF0FF304FF0000102EA00020B
:100A6C0003EA0103C7E9002300BF3A783B691A7017
:100A7C0000BFFFF703FE0346002BFAD1FFF70CFE75
:100A8C00786100F003F81837BD4680BD80B400AF24
:100A9C00044A044B1B6923F001031361BD465DF846
:100AAC00047B7047003C024080B400AF044B054A05
:100ABC009A60034B044A9A60BD465DF8047B70470C
:100ACC00003C02403B2A19087F6E5D4C80B400AF9D
:100ADC00044A044B5B6943F001035361BD465DF866
:100AEC00047B7047003C024080B485B000AF786056
:100AFC007B6803F13F4303F57E03002B01DA03F21D
:100B0C00FF339B12FB600D490C4B1B690120FA68EB
:100B1C0000FA02F2D24313400B610849074B1B6BDE
:100B2C000120FA6800FA02F2134343F480130B63BA
:100B3C001437BD465DF8047B704700BF0038024097
:100B4C0080B584B000AFF860B9607A607868FFF760
:100B5C00CBFF7B681B68BA685200032101FA02F2D2
:100B6C001A437B681A607B68DB68BA685200032101
:100B7C0001FA02F2D2431A407B68DA607B68DB68C8
:100B8C00BA685200F96801FA02F21A437B68DA601B
:100B9C001037BD4680BD00BF80B584B000AFF86093
:100BAC00B9607A607868FFF79FFF7B681B68BA684A
:100BBC005200032101FA02F2D2431A407B681A60F8
:100BCC007B681B68BA685200022101FA02F21A43D0
:100BDC007B681A607B68DB68BA685200032101FAF3
:100BEC0002F2D2431A407B68DA607B68DB68BA6831
:100BFC005200F96801FA02F21A437B68DA60103786
:100C0C00BD4680BD80B584B000AFF860B9607A6035
:100C1C007868FFF769FF7B681B68BA68520003218C
:100C2C0001FA02F2D2431A407B681A607B681B6897
:100C3C00BA685200012101FA02F21A437B681A6069
:100C4C007B685B680121BA6801FA02F2D2431A4050
:100C5C007B685A607B689B68BA685200032101FA72
:100C6C0002F2D2431A407B689A607B689B68BA6830
:100C7C005200F96801FA02F21A437B689A60103745
:100C8C00BD4680BD80B584B000AFF860B9607A60B5
:100C9C007868FFF729FF7B681B68BA68520003214C
:100CAC0001FA02F2D2431A407B681A607B681A6818
:100CBC007B681A607B68DB68BA685200032101FA12
:100CCC0002F2D2431A407B68DA607B68DB68BA6850
:100CDC005200F96801FA02F21A437B68DA601037A5
:100CEC00BD4680BD80B483B000AF03463960FB8045
:100CFC00FB88012202FA03F31A463B689A610C370F
:100D0C00BD465DF8047B704780B483B000AF0346EA
:100D1C003960FB80FB881033012202FA03F31A4678
:100D2C003B689A610C37BD465DF8047B704700BF89
:100D3C0070B50F4E0F4D761BB61018BF002405D0A2
:100D4C00013455F8043B9847A642F9D10A4E0B4D95
:100D5C00761B00F0B7F8B61018BF002406D001348B
:100D6C0055F8043B9847A642F9D170BD70BD00BF41
:100D7C000C0F00080C0F0008140F00080C0F0008D3
:100D8C00024B13B1024800F005B870470000000098
:100D9C00AD0D0008014600200246034600F016B8CF
:100DAC0038B5084B084DED1AAC1018BFED1805D02E
:100DBC00013C55F8043D9847002CF9D1BDE838406A
:100DCC0000F086B8140F0008180F00082DE9F04742
:100DDC00254C2568D5F848410646884692469946E2
:100DEC00CCB360681F2818DC431C7EB104EB800573
:100DFC000121C5F888A0D4F8887101FA00F21743D4
:100E0C00022EC4F88871C5F808911ED002306360B8
:100E1C0044F820800020BDE8F087144B03B34FF456
:100E2C00C870AFF300800446D0B1D5F84831002724
:100E3C0080E88800C5F8484138460123C4F8887119
:100E4C00C4F88C71002EE1D0D0E7D4F88C110A4391
:100E5C00C4F88C21DAE705F5A674C5F84841C0E75B
:100E6C004FF0FF30BDE8F087080F000800000000CD
:100E7C00DFF834D0002103E00C4B5B5843500431B5
:100E8C000B480C4B42189A42F6D30B4A02E0002353
:100E9C0042F8043B094B9A42F9D3FFF70FFAFFF7DC
:100EAC0047FFFFF7ABF97047FFFF0220180F000850
:100EBC000000002040040020400400205C040020BE
:100ECC00FEE70000F8B500BFF8BC08BC9E467047B2
:0C0EDC00F8B500BFF8BC08BC9E4670478B
:100EE8004A414E472053494E470000000C170F0A4D
:100EF8000C22385762245A647B9CBD0043000000D2
:040F080018000020AD
:080F0C008D0D0008D101000861
:040F1400AD01000823
:100F18000095BA0A00000000000000000102030466
:100F28000607080900000000000000000403002074
:100F38006C030020D4030020000000000000000023
:100F48000000000000000000000000000000000099
:100F5800000000000000000000000000040F00086E
:100F68000000000000000000000000000000000079
:100F78000000000000000000000000000000000069
:100F88000000000000000000000000000000000059
:100F98000000000000000000000000000000000049
:100FA8000000000000000000000000000000000039
:100FB8000000000000000000000000000000000029
:100FC8000000000000000000000000000000000019
:100FD80001000000000000000E33CDAB34126DE6B6
:100FE800ECDE05000B00000000000000000000001F
:100FF80000000000000000000000000000000000E9
:1010080000000000000000000000000000000000D8
:1010180000000000000000000000000000000000C8
:1010280000000000000000000000000000000000B8
:0400000508000E7D64
:00000001FF
